{
  "_format": "hh-sol-artifact-1",
  "contractName": "MyOtherContract",
  "sourceName": "contracts/MyOtherContract.sol",
  "abi": [
    {
      "inputs": [
        {
          "internalType": "contract MyERC20",
          "name": "_myERC20",
          "type": "address"
        }
      ],
      "stateMutability": "nonpayable",
      "type": "constructor"
    },
    {
      "inputs": [
        {
          "internalType": "address",
          "name": "_to",
          "type": "address"
        },
        {
          "internalType": "uint256",
          "name": "_amount",
          "type": "uint256"
        }
      ],
      "name": "myOtherFunction",
      "outputs": [
        {
          "internalType": "bool",
          "name": "",
          "type": "bool"
        }
      ],
      "stateMutability": "nonpayable",
      "type": "function"
    }
  ],
  "bytecode": "0x608060405234801561001057600080fd5b506040516105cb3803806105cb8339818101604052810190610032919061008d565b806000806101000a81548173ffffffffffffffffffffffffffffffffffffffff021916908373ffffffffffffffffffffffffffffffffffffffff16021790555050610111565b600081519050610087816100fa565b92915050565b60006020828403121561009f57600080fd5b60006100ad84828501610078565b91505092915050565b60006100c1826100da565b9050919050565b60006100d3826100b6565b9050919050565b600073ffffffffffffffffffffffffffffffffffffffff82169050919050565b610103816100c8565b811461010e57600080fd5b50565b6104ab806101206000396000f3fe608060405234801561001057600080fd5b506004361061002b5760003560e01c806328787ba514610030575b600080fd5b61004a60048036038101906100459190610260565b610060565b6040516100579190610354565b60405180910390f35b60008060008054906101000a900473ffffffffffffffffffffffffffffffffffffffff1673ffffffffffffffffffffffffffffffffffffffff16636c7e54a685856040518363ffffffff1660e01b81526004016100be92919061032b565b602060405180830381600087803b1580156100d857600080fd5b505af11580156100ec573d6000803e3d6000fd5b505050506040513d601f19601f82011682018060405250810190610110919061029c565b90506101516040518060400160405280601581526020017f546865206d696e74656420616d6f756e742077617300000000000000000000008152508261015c565b600191505092915050565b6101f4828260405160240161017292919061036f565b6040516020818303038152906040527f9710a9d0000000000000000000000000000000000000000000000000000000007bffffffffffffffffffffffffffffffffffffffffffffffffffffffff19166020820180517bffffffffffffffffffffffffffffffffffffffffffffffffffffffff83818316178352505050506101f8565b5050565b60008151905060006a636f6e736f6c652e6c6f679050602083016000808483855afa5050505050565b60008135905061023081610447565b92915050565b6000813590506102458161045e565b92915050565b60008151905061025a8161045e565b92915050565b6000806040838503121561027357600080fd5b600061028185828601610221565b925050602061029285828601610236565b9150509250929050565b6000602082840312156102ae57600080fd5b60006102bc8482850161024b565b91505092915050565b6102ce816103bb565b82525050565b6102dd816103cd565b82525050565b60006102ee8261039f565b6102f881856103aa565b9350610308818560208601610403565b61031181610436565b840191505092915050565b610325816103f9565b82525050565b600060408201905061034060008301856102c5565b61034d602083018461031c565b9392505050565b600060208201905061036960008301846102d4565b92915050565b6000604082019050818103600083015261038981856102e3565b9050610398602083018461031c565b9392505050565b600081519050919050565b600082825260208201905092915050565b60006103c6826103d9565b9050919050565b60008115159050919050565b600073ffffffffffffffffffffffffffffffffffffffff82169050919050565b6000819050919050565b60005b83811015610421578082015181840152602081019050610406565b83811115610430576000848401525b50505050565b6000601f19601f8301169050919050565b610450816103bb565b811461045b57600080fd5b50565b610467816103f9565b811461047257600080fd5b5056fea264697066735822122040caaaa6f59d691e5e985f74b6ca73af1994467951c934b0d9fea1da4e04f59b64736f6c63430008030033",
  "linkReferences": {},
  "deployedLinkReferences": {}
}