{
  "contractName": "Test",
  "abi": [
    {
      "constant": false,
      "inputs": [
        {
          "name": "_newName",
          "type": "string"
        }
      ],
      "name": "changeName",
      "outputs": [],
      "payable": false,
      "stateMutability": "nonpayable",
      "type": "function"
    }
  ],
  "bytecode": "0x608060405234801561001057600080fd5b506101f3806100206000396000f3fe60806040526004361061003b576000357c0100000000000000000000000000000000000000000000000000000000900480635353a2d814610040575b600080fd5b34801561004c57600080fd5b506101066004803603602081101561006357600080fd5b810190808035906020019064010000000081111561008057600080fd5b82018360208201111561009257600080fd5b803590602001918460018302840111640100000000831117156100b457600080fd5b91908080601f016020809104026020016040519081016040528093929190818152602001838380828437600081840152601f19601f820116905080830192505050505050509192919290505050610108565b005b806000908051906020019061011e929190610122565b5050565b828054600181600116156101000203166002900490600052602060002090601f016020900481019282601f1061016357805160ff1916838001178555610191565b82800160010185558215610191579182015b82811115610190578251825591602001919060010190610175565b5b50905061019e91906101a2565b5090565b6101c491905b808211156101c05760008160009055506001016101a8565b5090565b9056fea165627a7a72305820324d519ca9b6a916ebcf3ad827767620ef257bace11f24b82e75251329160c0f0029",
  "source": "// SPDX-License-Identifier: GPL-3.0\r\npragma solidity ^0.5.1;\r\n\r\n\r\ncontract Test {\r\n    \r\n    string name;\r\n\r\n    function changeName(string memory _newName) public {\r\n        name = _newName;\r\n    }\r\n}",
  "sourcePath": "C:/Learn Solidity Tests/Web3/TestWeb3WithGanache/contracts/Test.sol",
  "compiler": {
    "name": "solc",
    "version": "0.5.1+commit.c8a2cb62.Emscripten.clang"
  },
  "schemaVersion": "3.3.4",
  "updatedAt": "2021-05-15T21:54:29.041Z",
  "networkType": "ethereum",
  "devdoc": {
    "methods": {}
  },
  "userdoc": {
    "methods": {}
  }
}