{
  "contractName": "Test",
  "abi": [
    {
      "constant": true,
      "inputs": [],
      "name": "getFirstName",
      "outputs": [
        {
          "name": "",
          "type": "string"
        }
      ],
      "payable": false,
      "stateMutability": "view",
      "type": "function"
    },
    {
      "constant": false,
      "inputs": [
        {
          "name": "_newName",
          "type": "string"
        }
      ],
      "name": "changeName",
      "outputs": [],
      "payable": false,
      "stateMutability": "nonpayable",
      "type": "function"
    }
  ],
  "bytecode": "0x60806040526040805190810160405280600681526020017f4b696963686900000000000000000000000000000000000000000000000000008152506000908051906020019061004f929190610062565b5034801561005c57600080fd5b50610107565b828054600181600116156101000203166002900490600052602060002090601f016020900481019282601f106100a357805160ff19168380011785556100d1565b828001600101855582156100d1579182015b828111156100d05782518255916020019190600101906100b5565b5b5090506100de91906100e2565b5090565b61010491905b808211156101005760008160009055506001016100e8565b5090565b90565b610330806101166000396000f3fe608060405260043610610046576000357c0100000000000000000000000000000000000000000000000000000000900480635353a2d81461004b578063932997f114610113575b600080fd5b34801561005757600080fd5b506101116004803603602081101561006e57600080fd5b810190808035906020019064010000000081111561008b57600080fd5b82018360208201111561009d57600080fd5b803590602001918460018302840111640100000000831117156100bf57600080fd5b91908080601f016020809104026020016040519081016040528093929190818152602001838380828437600081840152601f19601f8201169050808301925050505050505091929192905050506101a3565b005b34801561011f57600080fd5b506101286101bd565b6040518080602001828103825283818151815260200191508051906020019080838360005b8381101561016857808201518184015260208101905061014d565b50505050905090810190601f1680156101955780820380516001836020036101000a031916815260200191505b509250505060405180910390f35b80600090805190602001906101b992919061025f565b5050565b606060008054600181600116156101000203166002900480601f0160208091040260200160405190810160405280929190818152602001828054600181600116156101000203166002900480156102555780601f1061022a57610100808354040283529160200191610255565b820191906000526020600020905b81548152906001019060200180831161023857829003601f168201915b5050505050905090565b828054600181600116156101000203166002900490600052602060002090601f016020900481019282601f106102a057805160ff19168380011785556102ce565b828001600101855582156102ce579182015b828111156102cd5782518255916020019190600101906102b2565b5b5090506102db91906102df565b5090565b61030191905b808211156102fd5760008160009055506001016102e5565b5090565b9056fea165627a7a72305820b2f9b5c51ba996d4f78ed3730c294c3f0b9efd7cff7b08e0879214f35889a3640029",
  "source": "// SPDX-License-Identifier: GPL-3.0\r\npragma solidity ^0.5.1;\r\n\r\n\r\ncontract Test {\r\n    \r\n    string name = \"Kiichi\";\r\n\r\n    function getFirstName() public view returns (string memory) {\r\n        return name;\r\n    }\r\n\r\n    // function getNameWithFamilyName() public view returns (string memory nameWithFirstName) {\r\n    //     nameWithFirstName = name + \" \" + \"Tsuchiya\";\r\n    //     return nameWithFirstName;\r\n    // }\r\n\r\n    function changeName(string memory _newName) public {\r\n        name = _newName;\r\n    }\r\n\r\n}",
  "sourcePath": "C:/Learn Solidity Tests/Web3/ContractInstanceWithWeb3/contracts/Test.sol",
  "compiler": {
    "name": "solc",
    "version": "0.5.1+commit.c8a2cb62.Emscripten.clang"
  },
  "schemaVersion": "3.3.4",
  "updatedAt": "2021-05-16T21:48:42.093Z",
  "networkType": "ethereum",
  "devdoc": {
    "methods": {}
  },
  "userdoc": {
    "methods": {}
  }
}