{
  "_format": "hh-sol-artifact-1",
  "contractName": "Test",
  "sourceName": "contracts/Test.sol",
  "abi": [
    {
      "inputs": [
        {
          "internalType": "uint256",
          "name": "_value",
          "type": "uint256"
        }
      ],
      "stateMutability": "nonpayable",
      "type": "constructor"
    },
    {
      "inputs": [],
      "name": "owner",
      "outputs": [
        {
          "internalType": "address",
          "name": "",
          "type": "address"
        }
      ],
      "stateMutability": "view",
      "type": "function"
    },
    {
      "inputs": [
        {
          "internalType": "uint256",
          "name": "_newValue",
          "type": "uint256"
        }
      ],
      "name": "setValue",
      "outputs": [
        {
          "internalType": "bool",
          "name": "",
          "type": "bool"
        }
      ],
      "stateMutability": "nonpayable",
      "type": "function"
    },
    {
      "inputs": [],
      "name": "value",
      "outputs": [
        {
          "internalType": "uint256",
          "name": "",
          "type": "uint256"
        }
      ],
      "stateMutability": "view",
      "type": "function"
    }
  ],
  "bytecode": "0x608060405234801561001057600080fd5b5060405161040138038061040183398181016040528101906100329190610095565b8060008190555033600160006101000a81548173ffffffffffffffffffffffffffffffffffffffff021916908373ffffffffffffffffffffffffffffffffffffffff160217905550506100e8565b60008151905061008f816100d1565b92915050565b6000602082840312156100ab576100aa6100cc565b5b60006100b984828501610080565b91505092915050565b6000819050919050565b600080fd5b6100da816100c2565b81146100e557600080fd5b50565b61030a806100f76000396000f3fe608060405234801561001057600080fd5b50600436106100415760003560e01c80633fa4f2451461004657806355241077146100645780638da5cb5b14610094575b600080fd5b61004e6100b2565b60405161005b919061021b565b60405180910390f35b61007e60048036038101906100799190610148565b6100b8565b60405161008b91906101e0565b60405180910390f35b61009c61010d565b6040516100a991906101c5565b60405180910390f35b60005481565b6000600582116100fd576040517f08c379a00000000000000000000000000000000000000000000000000000000081526004016100f4906101fb565b60405180910390fd5b8160008190555060019050919050565b600160009054906101000a900473ffffffffffffffffffffffffffffffffffffffff1681565b600081359050610142816102bd565b92915050565b60006020828403121561015e5761015d61028f565b5b600061016c84828501610133565b91505092915050565b61017e81610247565b82525050565b61018d81610259565b82525050565b60006101a0601983610236565b91506101ab82610294565b602082019050919050565b6101bf81610285565b82525050565b60006020820190506101da6000830184610175565b92915050565b60006020820190506101f56000830184610184565b92915050565b6000602082019050818103600083015261021481610193565b9050919050565b600060208201905061023060008301846101b6565b92915050565b600082825260208201905092915050565b600061025282610265565b9050919050565b60008115159050919050565b600073ffffffffffffffffffffffffffffffffffffffff82169050919050565b6000819050919050565b600080fd5b7f76616c7565206d757374206265206d6f7265207468616e203500000000000000600082015250565b6102c681610285565b81146102d157600080fd5b5056fea26469706673582212204f729b8b94bae2576489626507156212b8c582976c61ca5130ac0467507f653664736f6c63430008060033",
  "linkReferences": {},
  "deployedLinkReferences": {}
}