{
  "_format": "hh-sol-artifact-1",
  "contractName": "Test",
  "sourceName": "contracts/Test.sol",
  "abi": [
    {
      "inputs": [
        {
          "internalType": "uint256",
          "name": "_value",
          "type": "uint256"
        }
      ],
      "stateMutability": "nonpayable",
      "type": "constructor"
    },
    {
      "anonymous": false,
      "inputs": [
        {
          "indexed": false,
          "internalType": "uint256",
          "name": "oldValue",
          "type": "uint256"
        },
        {
          "indexed": false,
          "internalType": "uint256",
          "name": "newValue",
          "type": "uint256"
        }
      ],
      "name": "valueChanged",
      "type": "event"
    },
    {
      "inputs": [],
      "name": "owner",
      "outputs": [
        {
          "internalType": "address",
          "name": "",
          "type": "address"
        }
      ],
      "stateMutability": "view",
      "type": "function"
    },
    {
      "inputs": [
        {
          "internalType": "uint256",
          "name": "_newValue",
          "type": "uint256"
        }
      ],
      "name": "setValue",
      "outputs": [
        {
          "internalType": "bool",
          "name": "",
          "type": "bool"
        }
      ],
      "stateMutability": "nonpayable",
      "type": "function"
    },
    {
      "inputs": [],
      "name": "value",
      "outputs": [
        {
          "internalType": "uint256",
          "name": "",
          "type": "uint256"
        }
      ],
      "stateMutability": "view",
      "type": "function"
    }
  ],
  "bytecode": "0x608060405234801561001057600080fd5b5060405161046a38038061046a83398181016040528101906100329190610095565b8060008190555033600160006101000a81548173ffffffffffffffffffffffffffffffffffffffff021916908373ffffffffffffffffffffffffffffffffffffffff160217905550506100e8565b60008151905061008f816100d1565b92915050565b6000602082840312156100ab576100aa6100cc565b5b60006100b984828501610080565b91505092915050565b6000819050919050565b600080fd5b6100da816100c2565b81146100e557600080fd5b50565b610373806100f76000396000f3fe608060405234801561001057600080fd5b50600436106100415760003560e01c80633fa4f2451461004657806355241077146100645780638da5cb5b14610094575b600080fd5b61004e6100b2565b60405161005b919061025b565b60405180910390f35b61007e60048036038101906100799190610188565b6100b8565b60405161008b9190610220565b60405180910390f35b61009c61014d565b6040516100a99190610205565b60405180910390f35b60005481565b6000600582116100fd576040517f08c379a00000000000000000000000000000000000000000000000000000000081526004016100f49061023b565b60405180910390fd5b600080549050826000819055507fb15d5f9ec489c316915ac5faaf568a003c331516bc23213231e3660c78bfc1b1818460405161013b929190610276565b60405180910390a16001915050919050565b600160009054906101000a900473ffffffffffffffffffffffffffffffffffffffff1681565b60008135905061018281610326565b92915050565b60006020828403121561019e5761019d6102f8565b5b60006101ac84828501610173565b91505092915050565b6101be816102b0565b82525050565b6101cd816102c2565b82525050565b60006101e060198361029f565b91506101eb826102fd565b602082019050919050565b6101ff816102ee565b82525050565b600060208201905061021a60008301846101b5565b92915050565b600060208201905061023560008301846101c4565b92915050565b60006020820190508181036000830152610254816101d3565b9050919050565b600060208201905061027060008301846101f6565b92915050565b600060408201905061028b60008301856101f6565b61029860208301846101f6565b9392505050565b600082825260208201905092915050565b60006102bb826102ce565b9050919050565b60008115159050919050565b600073ffffffffffffffffffffffffffffffffffffffff82169050919050565b6000819050919050565b600080fd5b7f76616c7565206d757374206265206d6f7265207468616e203500000000000000600082015250565b61032f816102ee565b811461033a57600080fd5b5056fea26469706673582212200155b0c79439f876917a6e00638bca321caa655b09e4c1ef35a8d9cb84fb0b2f64736f6c63430008060033",
  "linkReferences": {},
  "deployedLinkReferences": {}
}