{
  "contractName": "Background",
  "abi": [
    {
      "inputs": [
        {
          "internalType": "uint256",
          "name": "_value",
          "type": "uint256"
        }
      ],
      "name": "storeValue",
      "outputs": [],
      "stateMutability": "nonpayable",
      "type": "function"
    },
    {
      "inputs": [
        {
          "internalType": "uint256",
          "name": "_index",
          "type": "uint256"
        }
      ],
      "name": "getValue",
      "outputs": [
        {
          "internalType": "uint256",
          "name": "",
          "type": "uint256"
        }
      ],
      "stateMutability": "view",
      "type": "function",
      "constant": true
    },
    {
      "inputs": [],
      "name": "getNumberOfValue",
      "outputs": [
        {
          "internalType": "uint256",
          "name": "",
          "type": "uint256"
        }
      ],
      "stateMutability": "view",
      "type": "function",
      "constant": true
    }
  ],
  "bytecode": "0x608060405234801561001057600080fd5b506101f4806100206000396000f3fe608060405234801561001057600080fd5b50600436106100415760003560e01c80630ff4c916146100465780631215ed67146100765780637221a26a14610094575b600080fd5b610060600480360381019061005b919061014a565b6100b0565b60405161006d9190610182565b60405180910390f35b61007e6100fd565b60405161008b9190610182565b60405180910390f35b6100ae60048036038101906100a9919061014a565b610109565b005b60008082815481106100eb577f4e487b7100000000000000000000000000000000000000000000000000000000600052603260045260246000fd5b90600052602060002001549050919050565b60008080549050905090565b600081908060018154018082558091505060019003906000526020600020016000909190919091505550565b600081359050610144816101a7565b92915050565b60006020828403121561015c57600080fd5b600061016a84828501610135565b91505092915050565b61017c8161019d565b82525050565b60006020820190506101976000830184610173565b92915050565b6000819050919050565b6101b08161019d565b81146101bb57600080fd5b5056fea264697066735822122036cefb9b9befb162f3870cfbb25163d63141f190e0faf13d96d7de1314c4ef8464736f6c63430008000033",
  "immutableReferences": {},
  "source": "// SPDX-License-Identifier: GPL-3.0\r\npragma solidity >0.7.0 <0.9.0;\r\n\r\ncontract Background {\r\n\r\n    uint[] private values;\r\n\r\n    function storeValue(uint _value) public virtual {\r\n        values.push(_value);\r\n    }\r\n\r\n    function getValue(uint _index) public view returns (uint) {\r\n        return values[_index];\r\n    } \r\n\r\n    function getNumberOfValue() public view returns (uint) {\r\n        return values.length;\r\n    }\r\n}",
  "sourcePath": "C:/Learn Solidity Tests/Solidity Test Case Practice/contracts/Background.sol",
  "compiler": {
    "name": "solc",
    "version": "0.8.0+commit.c7dfd78e.Emscripten.clang"
  },
  "schemaVersion": "3.3.4",
  "updatedAt": "2021-04-23T13:19:49.254Z",
  "networkType": "ethereum",
  "devdoc": {
    "kind": "dev",
    "methods": {},
    "version": 1
  },
  "userdoc": {
    "kind": "user",
    "methods": {},
    "version": 1
  }
}