{
  "contractName": "EntryPoint",
  "abi": [
    {
      "inputs": [
        {
          "internalType": "address",
          "name": "_background",
          "type": "address"
        }
      ],
      "stateMutability": "nonpayable",
      "type": "constructor"
    },
    {
      "inputs": [],
      "name": "backgroundAddress",
      "outputs": [
        {
          "internalType": "address",
          "name": "",
          "type": "address"
        }
      ],
      "stateMutability": "view",
      "type": "function",
      "constant": true
    },
    {
      "inputs": [],
      "name": "getBackgroundAddress",
      "outputs": [
        {
          "internalType": "address",
          "name": "",
          "type": "address"
        }
      ],
      "stateMutability": "view",
      "type": "function",
      "constant": true
    },
    {
      "inputs": [
        {
          "internalType": "uint256",
          "name": "_first",
          "type": "uint256"
        },
        {
          "internalType": "uint256",
          "name": "_second",
          "type": "uint256"
        }
      ],
      "name": "storeTwoValues",
      "outputs": [],
      "stateMutability": "nonpayable",
      "type": "function"
    },
    {
      "inputs": [],
      "name": "getNumberOfValues",
      "outputs": [
        {
          "internalType": "uint256",
          "name": "",
          "type": "uint256"
        }
      ],
      "stateMutability": "view",
      "type": "function",
      "constant": true
    }
  ],
  "bytecode": "0x608060405234801561001057600080fd5b5060405161054e38038061054e8339818101604052810190610032919061008d565b806000806101000a81548173ffffffffffffffffffffffffffffffffffffffff021916908373ffffffffffffffffffffffffffffffffffffffff160217905550506100ff565b600081519050610087816100e8565b92915050565b60006020828403121561009f57600080fd5b60006100ad84828501610078565b91505092915050565b60006100c1826100c8565b9050919050565b600073ffffffffffffffffffffffffffffffffffffffff82169050919050565b6100f1816100b6565b81146100fc57600080fd5b50565b6104408061010e6000396000f3fe608060405234801561001057600080fd5b506004361061004c5760003560e01c80634312aee1146100515780635b93e8991461006f578063791594851461008d578063e812d6a5146100ab575b600080fd5b6100596100c7565b604051610066919061039c565b60405180910390f35b61007761016d565b6040516100849190610381565b60405180910390f35b610095610196565b6040516100a29190610381565b60405180910390f35b6100c560048036038101906100c09190610327565b6101ba565b005b60008060009054906101000a900473ffffffffffffffffffffffffffffffffffffffff1673ffffffffffffffffffffffffffffffffffffffff16631215ed676040518163ffffffff1660e01b815260040160206040518083038186803b15801561013057600080fd5b505afa158015610144573d6000803e3d6000fd5b505050506040513d601f19601f8201168201806040525081019061016891906102fe565b905090565b60008060009054906101000a900473ffffffffffffffffffffffffffffffffffffffff16905090565b60008054906101000a900473ffffffffffffffffffffffffffffffffffffffff1681565b60008054906101000a900473ffffffffffffffffffffffffffffffffffffffff1673ffffffffffffffffffffffffffffffffffffffff16637221a26a836040518263ffffffff1660e01b8152600401610213919061039c565b600060405180830381600087803b15801561022d57600080fd5b505af1158015610241573d6000803e3d6000fd5b5050505060008054906101000a900473ffffffffffffffffffffffffffffffffffffffff1673ffffffffffffffffffffffffffffffffffffffff16637221a26a826040518263ffffffff1660e01b815260040161029e919061039c565b600060405180830381600087803b1580156102b857600080fd5b505af11580156102cc573d6000803e3d6000fd5b505050505050565b6000813590506102e3816103f3565b92915050565b6000815190506102f8816103f3565b92915050565b60006020828403121561031057600080fd5b600061031e848285016102e9565b91505092915050565b6000806040838503121561033a57600080fd5b6000610348858286016102d4565b9250506020610359858286016102d4565b9150509250929050565b61036c816103b7565b82525050565b61037b816103e9565b82525050565b60006020820190506103966000830184610363565b92915050565b60006020820190506103b16000830184610372565b92915050565b60006103c2826103c9565b9050919050565b600073ffffffffffffffffffffffffffffffffffffffff82169050919050565b6000819050919050565b6103fc816103e9565b811461040757600080fd5b5056fea2646970667358221220560f041a16c82d80715243a696eb769b163d3fd1daa99eddca71f67fde34d06d64736f6c63430008000033",
  "immutableReferences": {},
  "source": "// SPDX-License-Identifier: GPL-3.0\r\npragma solidity >0.7.0 <0.9.0;\r\n\r\nimport \"./Background.sol\";\r\n\r\n\r\ncontract EntryPoint {\r\n\r\n    address public backgroundAddress;\r\n\r\n    constructor(address _background) {\r\n        backgroundAddress = _background;\r\n    }\r\n\r\n    function getBackgroundAddress() public view returns (address) {\r\n        return backgroundAddress;\r\n    }\r\n\r\n    function storeTwoValues(uint _first, uint _second) public {\r\n        Background(backgroundAddress).storeValue(_first);\r\n        Background(backgroundAddress).storeValue(_second);\r\n    }\r\n\r\n    function getNumberOfValues() public view returns (uint) {\r\n        return Background(backgroundAddress).getNumberOfValue();\r\n    }\r\n}",
  "sourcePath": "C:/Learn Solidity Tests/Solidity Test Case Practice/contracts/EntryPoint.sol",
  "compiler": {
    "name": "solc",
    "version": "0.8.0+commit.c7dfd78e.Emscripten.clang"
  },
  "schemaVersion": "3.3.4",
  "updatedAt": "2021-04-23T13:19:49.260Z",
  "networkType": "ethereum",
  "devdoc": {
    "kind": "dev",
    "methods": {},
    "version": 1
  },
  "userdoc": {
    "kind": "user",
    "methods": {},
    "version": 1
  }
}