{
  "contractName": "Events",
  "abi": [
    {
      "anonymous": false,
      "inputs": [
        {
          "indexed": true,
          "internalType": "uint256",
          "name": "id",
          "type": "uint256"
        },
        {
          "indexed": true,
          "internalType": "uint256",
          "name": "date",
          "type": "uint256"
        },
        {
          "indexed": false,
          "internalType": "string",
          "name": "value",
          "type": "string"
        }
      ],
      "name": "MyEvent",
      "type": "event"
    },
    {
      "constant": false,
      "inputs": [
        {
          "internalType": "string",
          "name": "_value",
          "type": "string"
        }
      ],
      "name": "emitEvent",
      "outputs": [],
      "payable": false,
      "stateMutability": "nonpayable",
      "type": "function"
    }
  ],
  "bytecode": "0x608060405234801561001057600080fd5b5061015a806100206000396000f3fe608060405234801561001057600080fd5b506004361061002b5760003560e01c8063982296a814610030575b600080fd5b6100a76004803603602081101561004657600080fd5b810190808035906020019064010000000081111561006357600080fd5b82018360208201111561007557600080fd5b8035906020019184600183028401116401000000008311171561009757600080fd5b90919293919293905050506100a9565b005b426000547fb471d59b9e8fe78ab0670c11fe84df6ab431139b43533ab6764e0b15b8d6c39a848460405180806020018281038252848482818152602001925080828437600081840152601f19601f820116905080830192505050935050505060405180910390a36000808154809291906001019190505550505056fea265627a7a72315820f88f7642961f96fb34322ddce532b47f7ca9e165c22d92a147265beb48171df564736f6c63430005100032",
  "source": "// SPDX-License-Identifier: GPL-3.0\r\npragma solidity ^0.5.1;\r\n\r\n\r\ncontract Events {\r\n\r\n    event MyEvent (\r\n        uint indexed id,\r\n        uint indexed date,\r\n        string value\r\n    );\r\n\r\n    uint nextId;\r\n\r\n    function emitEvent(string calldata _value) external {\r\n        emit MyEvent(nextId, block.timestamp, _value);\r\n        nextId++;\r\n    }\r\n}",
  "sourcePath": "C:/Learn Solidity Tests/Web3/EventWithWeb3/contracts/Events.sol",
  "compiler": {
    "name": "solc",
    "version": "0.5.16+commit.9c3226ce.Emscripten.clang"
  },
  "schemaVersion": "3.3.4",
  "updatedAt": "2021-05-17T16:59:42.955Z",
  "networkType": "ethereum",
  "devdoc": {
    "methods": {}
  },
  "userdoc": {
    "methods": {}
  }
}