{
  "contractName": "Events",
  "abi": [
    {
      "anonymous": false,
      "inputs": [
        {
          "indexed": true,
          "name": "id",
          "type": "uint256"
        },
        {
          "indexed": true,
          "name": "date",
          "type": "uint256"
        },
        {
          "indexed": true,
          "name": "value",
          "type": "string"
        }
      ],
      "name": "MyEvent",
      "type": "event"
    },
    {
      "constant": false,
      "inputs": [
        {
          "name": "_value",
          "type": "string"
        }
      ],
      "name": "emitEvent",
      "outputs": [],
      "payable": false,
      "stateMutability": "nonpayable",
      "type": "function"
    }
  ],
  "bytecode": "0x608060405234801561001057600080fd5b50610156806100206000396000f3fe60806040526004361061003b576000357c010000000000000000000000000000000000000000000000000000000090048063982296a814610040575b600080fd5b34801561004c57600080fd5b506100c46004803603602081101561006357600080fd5b810190808035906020019064010000000081111561008057600080fd5b82018360208201111561009257600080fd5b803590602001918460018302840111640100000000831117156100b457600080fd5b90919293919293905050506100c6565b005b81816040518083838082843780830192505050925050506040518091039020426000547fb471d59b9e8fe78ab0670c11fe84df6ab431139b43533ab6764e0b15b8d6c39a60405160405180910390a46000808154809291906001019190505550505056fea165627a7a7230582035a30b0465b94a4425e19803a9149c17c11e00c64c4ac61a7df254f5e803eb9c0029",
  "source": "// SPDX-License-Identifier: GPL-3.0\r\npragma solidity ^0.5.1;\r\n\r\n\r\ncontract Events {\r\n\r\n    event MyEvent (\r\n        uint indexed id,\r\n        uint indexed date,\r\n        string indexed value\r\n    );\r\n\r\n    uint nextId;\r\n\r\n    function emitEvent(string calldata _value) external {\r\n        emit MyEvent(nextId, block.timestamp, _value);\r\n        nextId++;\r\n    }\r\n}",
  "sourcePath": "C:/Learn Solidity Tests/Web3/EventWithWeb3/contracts/Events.sol",
  "compiler": {
    "name": "solc",
    "version": "0.5.1+commit.c8a2cb62.Emscripten.clang"
  },
  "schemaVersion": "3.3.4",
  "updatedAt": "2021-05-17T17:06:49.977Z",
  "networkType": "ethereum",
  "devdoc": {
    "methods": {}
  },
  "userdoc": {
    "methods": {}
  }
}